{
  "_format": "hh-sol-artifact-1",
  "contractName": "HealthRecords",
  "sourceName": "contracts/HealthRecords.sol",
  "abi": [
    {
      "inputs": [],
      "stateMutability": "nonpayable",
      "type": "constructor"
    },
    {
      "anonymous": false,
      "inputs": [
        {
          "indexed": true,
          "internalType": "address",
          "name": "patientAddress",
          "type": "address"
        },
        {
          "indexed": true,
          "internalType": "address",
          "name": "providerAddress",
          "type": "address"
        }
      ],
      "name": "AccessGranted",
      "type": "event"
    },
    {
      "anonymous": false,
      "inputs": [
        {
          "indexed": true,
          "internalType": "address",
          "name": "patientAddress",
          "type": "address"
        },
        {
          "indexed": true,
          "internalType": "address",
          "name": "providerAddress",
          "type": "address"
        }
      ],
      "name": "AccessRevoked",
      "type": "event"
    },
    {
      "anonymous": false,
      "inputs": [
        {
          "indexed": true,
          "internalType": "address",
          "name": "oldOwner",
          "type": "address"
        },
        {
          "indexed": true,
          "internalType": "address",
          "name": "newOwner",
          "type": "address"
        }
      ],
      "name": "OwnerChanged",
      "type": "event"
    },
    {
      "anonymous": false,
      "inputs": [
        {
          "indexed": true,
          "internalType": "address",
          "name": "patientAddress",
          "type": "address"
        }
      ],
      "name": "PatientRegistered",
      "type": "event"
    },
    {
      "anonymous": false,
      "inputs": [
        {
          "indexed": true,
          "internalType": "address",
          "name": "providerAddress",
          "type": "address"
        }
      ],
      "name": "ProviderApproved",
      "type": "event"
    },
    {
      "anonymous": false,
      "inputs": [
        {
          "indexed": true,
          "internalType": "address",
          "name": "providerAddress",
          "type": "address"
        },
        {
          "indexed": false,
          "internalType": "string",
          "name": "name",
          "type": "string"
        },
        {
          "indexed": false,
          "internalType": "string",
          "name": "specialty",
          "type": "string"
        }
      ],
      "name": "ProviderRequestedRegistration",
      "type": "event"
    },
    {
      "anonymous": false,
      "inputs": [
        {
          "indexed": true,
          "internalType": "address",
          "name": "patientAddress",
          "type": "address"
        },
        {
          "indexed": false,
          "internalType": "uint256",
          "name": "recordId",
          "type": "uint256"
        },
        {
          "indexed": false,
          "internalType": "string",
          "name": "ipfsHash",
          "type": "string"
        },
        {
          "indexed": true,
          "internalType": "address",
          "name": "uploadedBy",
          "type": "address"
        }
      ],
      "name": "RecordAdded",
      "type": "event"
    },
    {
      "inputs": [
        {
          "internalType": "address",
          "name": "_patientAddress",
          "type": "address"
        },
        {
          "internalType": "string",
          "name": "_description",
          "type": "string"
        },
        {
          "internalType": "string",
          "name": "_ipfsHash",
          "type": "string"
        }
      ],
      "name": "addRecord",
      "outputs": [],
      "stateMutability": "nonpayable",
      "type": "function"
    },
    {
      "inputs": [
        {
          "internalType": "address",
          "name": "_providerAddress",
          "type": "address"
        }
      ],
      "name": "approveProvider",
      "outputs": [],
      "stateMutability": "nonpayable",
      "type": "function"
    },
    {
      "inputs": [
        {
          "internalType": "address",
          "name": "_patientAddress",
          "type": "address"
        },
        {
          "internalType": "address",
          "name": "_providerAddress",
          "type": "address"
        }
      ],
      "name": "checkAccess",
      "outputs": [
        {
          "internalType": "bool",
          "name": "",
          "type": "bool"
        }
      ],
      "stateMutability": "view",
      "type": "function"
    },
    {
      "inputs": [
        {
          "internalType": "address",
          "name": "_patientAddress",
          "type": "address"
        }
      ],
      "name": "getAuthorizedProvidersForPatient",
      "outputs": [
        {
          "internalType": "address[]",
          "name": "",
          "type": "address[]"
        }
      ],
      "stateMutability": "view",
      "type": "function"
    },
    {
      "inputs": [
        {
          "internalType": "address",
          "name": "_patientAddress",
          "type": "address"
        }
      ],
      "name": "getRecordCount",
      "outputs": [
        {
          "internalType": "uint256",
          "name": "",
          "type": "uint256"
        }
      ],
      "stateMutability": "view",
      "type": "function"
    },
    {
      "inputs": [
        {
          "internalType": "address",
          "name": "_patientAddress",
          "type": "address"
        },
        {
          "internalType": "uint256",
          "name": "_page",
          "type": "uint256"
        },
        {
          "internalType": "uint256",
          "name": "_pageSize",
          "type": "uint256"
        }
      ],
      "name": "getRecords",
      "outputs": [
        {
          "components": [
            {
              "internalType": "string",
              "name": "description",
              "type": "string"
            },
            {
              "internalType": "string",
              "name": "ipfsHash",
              "type": "string"
            },
            {
              "internalType": "uint256",
              "name": "timestamp",
              "type": "uint256"
            },
            {
              "internalType": "address",
              "name": "uploadedBy",
              "type": "address"
            }
          ],
          "internalType": "struct HealthRecords.HealthRecord[]",
          "name": "",
          "type": "tuple[]"
        }
      ],
      "stateMutability": "view",
      "type": "function"
    },
    {
      "inputs": [
        {
          "internalType": "address",
          "name": "_providerAddress",
          "type": "address"
        }
      ],
      "name": "grantAccess",
      "outputs": [],
      "stateMutability": "nonpayable",
      "type": "function"
    },
    {
      "inputs": [
        {
          "internalType": "address",
          "name": "",
          "type": "address"
        }
      ],
      "name": "isPatient",
      "outputs": [
        {
          "internalType": "bool",
          "name": "",
          "type": "bool"
        }
      ],
      "stateMutability": "view",
      "type": "function"
    },
    {
      "inputs": [],
      "name": "owner",
      "outputs": [
        {
          "internalType": "address",
          "name": "",
          "type": "address"
        }
      ],
      "stateMutability": "view",
      "type": "function"
    },
    {
      "inputs": [
        {
          "internalType": "address",
          "name": "",
          "type": "address"
        }
      ],
      "name": "providers",
      "outputs": [
        {
          "internalType": "string",
          "name": "name",
          "type": "string"
        },
        {
          "internalType": "string",
          "name": "specialty",
          "type": "string"
        },
        {
          "internalType": "bool",
          "name": "isApproved",
          "type": "bool"
        }
      ],
      "stateMutability": "view",
      "type": "function"
    },
    {
      "inputs": [
        {
          "internalType": "string",
          "name": "_name",
          "type": "string"
        },
        {
          "internalType": "string",
          "name": "_specialty",
          "type": "string"
        }
      ],
      "name": "requestProviderRegistration",
      "outputs": [],
      "stateMutability": "nonpayable",
      "type": "function"
    },
    {
      "inputs": [
        {
          "internalType": "address",
          "name": "_providerAddress",
          "type": "address"
        }
      ],
      "name": "revokeAccess",
      "outputs": [],
      "stateMutability": "nonpayable",
      "type": "function"
    }
  ],
  "bytecode": "0x608060405234801561001057600080fd5b50600080546001600160a01b0319163390811782556040519091907fb532073b38c83145e3e5135377a08bf9aab55bc0fd7c1179cd4fb995d2a5159c908290a36117e68061005f6000396000f3fe608060405234801561001057600080fd5b50600436106100b45760003560e01c80637371f9c2116100715780637371f9c21461017d5780637a28399b1461019057806385e68531146101a35780638da5cb5b146101b65780638f9c79ed146101e1578063d47b41d51461020457600080fd5b80630787bc27146100b95780630ae5e739146100e45780631bdb94a4146100f95780634bdef07614610119578063582143081461013957806362e1f7451461015a575b600080fd5b6100cc6100c73660046111bf565b610217565b6040516100db93929190611227565b60405180910390f35b6100f76100f23660046111bf565b61034c565b005b61010c61010736600461125f565b61051a565b6040516100db9190611292565b61012c6101273660046111bf565b6108ff565b6040516100db9190611336565b61014c6101473660046111bf565b6109ce565b6040519081526020016100db565b61016d610168366004611383565b610a44565b60405190151581526020016100db565b6100f761018b3660046113ff565b610a74565b6100f761019e3660046111bf565b610bfe565b6100f76101b13660046111bf565b610d98565b6000546101c9906001600160a01b031681565b6040516001600160a01b0390911681526020016100db565b61016d6101ef3660046111bf565b60056020526000908152604090205460ff1681565b6100f761021236600461146b565b610f83565b600260205260009081526040902080548190610232906114ec565b80601f016020809104026020016040519081016040528092919081815260200182805461025e906114ec565b80156102ab5780601f10610280576101008083540402835291602001916102ab565b820191906000526020600020905b81548152906001019060200180831161028e57829003601f168201915b5050505050908060010180546102c0906114ec565b80601f01602080910402602001604051908101604052809291908181526020018280546102ec906114ec565b80156103395780601f1061030e57610100808354040283529160200191610339565b820191906000526020600020905b81548152906001019060200180831161031c57829003601f168201915b5050506002909301549192505060ff1683565b6001600160a01b0381166000908152600260208190526040909120015460ff166103c85760405162461bcd60e51b815260206004820152602260248201527f546172676574206973206e6f7420616e20617070726f7665642070726f76696460448201526132b960f11b60648201526084015b60405180910390fd5b3360009081526003602090815260408083206001600160a01b038516845290915290205460ff161561043c5760405162461bcd60e51b815260206004820152601f60248201527f4163636573732068617320616c7265616479206265656e206772616e7465640060448201526064016103bf565b3360009081526005602052604090205460ff166104945733600081815260056020526040808220805460ff19166001179055517fc9fa2003fca4ce0dfc8cb0deae32266b715536df6685365b05b5be96ede8e49c9190a25b3360008181526003602090815260408083206001600160a01b038616808552908352818420805460ff191660019081179091558585526004845282852080549182018155855292842090920180546001600160a01b03191683179055519092917f9f520b3bfc56d06f7065d10b4683b3f57ac8895d5026cd176dee95ce1454cb8d91a350565b606083336001600160a01b038216148061055757506001600160a01b038116600090815260036020908152604080832033845290915290205460ff165b6105735760405162461bcd60e51b81526004016103bf90611520565b6000841180156105835750600083115b6105e05760405162461bcd60e51b815260206004820152602860248201527f5061676520616e64207061676553697a65206d75737420626520677265617465604482015267072207468616e20360c41b60648201526084016103bf565b6001600160a01b038516600090815260016020819052604082205491908590610609908861158b565b610613919061159e565b9050818110610683576040805160008082526020820190925290610679565b610666604051806080016040528060608152602001606081526020016000815260200160006001600160a01b031681525090565b8152602001906001900390816106325790505b50935050506108f7565b600061068f86836115cb565b90508281111561069c5750815b60006106a8838361158b565b67ffffffffffffffff8111156106c0576106c06115b5565b60405190808252806020026020018201604052801561072557816020015b610712604051806080016040528060608152602001606081526020016000815260200160006001600160a01b031681525090565b8152602001906001900390816106de5790505b509050825b828110156108f0576001600160a01b038a16600090815260016020526040902080548290811061075c5761075c6115de565b9060005260206000209060040201604051806080016040529081600082018054610785906114ec565b80601f01602080910402602001604051908101604052809291908181526020018280546107b1906114ec565b80156107fe5780601f106107d3576101008083540402835291602001916107fe565b820191906000526020600020905b8154815290600101906020018083116107e157829003601f168201915b50505050508152602001600182018054610817906114ec565b80601f0160208091040260200160405190810160405280929190818152602001828054610843906114ec565b80156108905780601f1061086557610100808354040283529160200191610890565b820191906000526020600020905b81548152906001019060200180831161087357829003601f168201915b5050509183525050600282015460208201526003909101546001600160a01b0316604090910152826108c2868461158b565b815181106108d2576108d26115de565b602002602001018190525080806108e8906115f4565b91505061072a565b5094505050505b509392505050565b606081336001600160a01b038216148061093c57506001600160a01b038116600090815260036020908152604080832033845290915290205460ff165b6109585760405162461bcd60e51b81526004016103bf90611520565b6001600160a01b038316600090815260046020908152604091829020805483518184028101840190945280845290918301828280156109c057602002820191906000526020600020905b81546001600160a01b031681526001909101906020018083116109a2575b505050505091505b50919050565b600081336001600160a01b0382161480610a0b57506001600160a01b038116600090815260036020908152604080832033845290915290205460ff165b610a275760405162461bcd60e51b81526004016103bf90611520565b50506001600160a01b031660009081526001602052604090205490565b6001600160a01b0380831660009081526003602090815260408083209385168352929052205460ff165b92915050565b336000908152600260208190526040909120015460ff1615610ae95760405162461bcd60e51b815260206004820152602860248201527f50726f766964657220616c7265616479207265676973746572656420616e6420604482015267185c1c1c9bdd995960c21b60648201526084016103bf565b604051806060016040528085858080601f016020809104026020016040519081016040528093929190818152602001838380828437600092019190915250505090825250604080516020601f8601819004810282018101909252848152918101919085908590819084018382808284376000920182905250938552505050602091820181905233815260029091526040902081518190610b89908261165c565b5060208201516001820190610b9e908261165c565b50604091820151600291909101805460ff19169115159190911790555133907fec7f2860c96a1c2a2e7ed2d57f195177fbbf124785d98d7933bca4fb8b15740790610bf0908790879087908790611745565b60405180910390a250505050565b6000546001600160a01b03163314610c585760405162461bcd60e51b815260206004820152601760248201527f43616c6c6572206973206e6f7420746865206f776e657200000000000000000060448201526064016103bf565b6001600160a01b03811660009081526002602052604081208054610c7b906114ec565b905011610cda5760405162461bcd60e51b815260206004820152602760248201527f50726f766964657220686173206e6f74207265717565737465642072656769736044820152663a3930ba34b7b760c91b60648201526084016103bf565b6001600160a01b0381166000908152600260208190526040909120015460ff1615610d475760405162461bcd60e51b815260206004820152601c60248201527f50726f766964657220697320616c726561647920617070726f7665640000000060448201526064016103bf565b6001600160a01b0381166000818152600260208190526040808320909101805460ff19166001179055517fee9f2f9f53f8a2451cc2e764d1e1f4690a053a9030f64411d67993d66b5231e79190a250565b3360009081526003602090815260408083206001600160a01b038516845290915290205460ff16610e0b5760405162461bcd60e51b815260206004820152601b60248201527f41636365737320686173206e6f74206265656e206772616e746564000000000060448201526064016103bf565b3360008181526003602090815260408083206001600160a01b03861684528252808320805460ff1916905592825260049052908120905b8154811015610f4857826001600160a01b0316828281548110610e6757610e676115de565b6000918252602090912001546001600160a01b031603610f365781548290610e919060019061158b565b81548110610ea157610ea16115de565b9060005260206000200160009054906101000a90046001600160a01b0316828281548110610ed157610ed16115de565b9060005260206000200160006101000a8154816001600160a01b0302191690836001600160a01b0316021790555081805480610f0f57610f0f611777565b600082815260209020810160001990810180546001600160a01b0319169055019055610f48565b80610f40816115f4565b915050610e42565b506040516001600160a01b0383169033907f825c8be24eb0df19500f63e86c29e7d0d951e73056b889b891d85e40938d9b6e90600090a35050565b336000908152600260208190526040909120015460ff16610ff15760405162461bcd60e51b815260206004820152602260248201527f43616c6c6572206973206e6f7420616e20617070726f7665642070726f76696460448201526132b960f11b60648201526084016103bf565b84336001600160a01b038216148061102c57506001600160a01b038116600090815260036020908152604080832033845290915290205460ff165b6110485760405162461bcd60e51b81526004016103bf90611520565b6001600160a01b0386166000908152600160209081526040918290208054835160a0601f8a018590049094028101840190945260808401888152909391928291908a908a9081908501838280828437600092019190915250505090825250604080516020601f890181900481028201810190925287815291810191908890889081908401838280828437600092018290525093855250504260208085019190915233604090940193909352508354600181018555938152208151919260040201908190611115908261165c565b506020820151600182019061112a908261165c565b506040828101516002830155606090920151600390910180546001600160a01b0319166001600160a01b03928316179055905133918916907ef54c8f790bd394cbe4b9102b04e757be79c107200527b390b5245db6e2b3b3906111929085908990899061178d565b60405180910390a350505050505050565b80356001600160a01b03811681146111ba57600080fd5b919050565b6000602082840312156111d157600080fd5b6111da826111a3565b9392505050565b6000815180845260005b81811015611207576020818501810151868301820152016111eb565b506000602082860101526020601f19601f83011685010191505092915050565b60608152600061123a60608301866111e1565b828103602084015261124c81866111e1565b9150508215156040830152949350505050565b60008060006060848603121561127457600080fd5b61127d846111a3565b95602085013595506040909401359392505050565b60006020808301818452808551808352604092508286019150828160051b87010184880160005b8381101561132857603f198984030185528151608081518186526112df828701826111e1565b915050888201518582038a8701526112f782826111e1565b838a0151878b01526060938401516001600160a01b03169390960192909252505093860193908601906001016112b9565b509098975050505050505050565b6020808252825182820181905260009190848201906040850190845b818110156113775783516001600160a01b031683529284019291840191600101611352565b50909695505050505050565b6000806040838503121561139657600080fd5b61139f836111a3565b91506113ad602084016111a3565b90509250929050565b60008083601f8401126113c857600080fd5b50813567ffffffffffffffff8111156113e057600080fd5b6020830191508360208285010111156113f857600080fd5b9250929050565b6000806000806040858703121561141557600080fd5b843567ffffffffffffffff8082111561142d57600080fd5b611439888389016113b6565b9096509450602087013591508082111561145257600080fd5b5061145f878288016113b6565b95989497509550505050565b60008060008060006060868803121561148357600080fd5b61148c866111a3565b9450602086013567ffffffffffffffff808211156114a957600080fd5b6114b589838a016113b6565b909650945060408801359150808211156114ce57600080fd5b506114db888289016113b6565b969995985093965092949392505050565b600181811c9082168061150057607f821691505b6020821081036109c857634e487b7160e01b600052602260045260246000fd5b60208082526035908201527f43616c6c657220646f6573206e6f7420686176652061636365737320746f20746040820152746869732070617469656e742773207265636f72647360581b606082015260800190565b634e487b7160e01b600052601160045260246000fd5b81810381811115610a6e57610a6e611575565b8082028115828204841417610a6e57610a6e611575565b634e487b7160e01b600052604160045260246000fd5b80820180821115610a6e57610a6e611575565b634e487b7160e01b600052603260045260246000fd5b60006001820161160657611606611575565b5060010190565b601f82111561165757600081815260208120601f850160051c810160208610156116345750805b601f850160051c820191505b8181101561165357828155600101611640565b5050505b505050565b815167ffffffffffffffff811115611676576116766115b5565b61168a8161168484546114ec565b8461160d565b602080601f8311600181146116bf57600084156116a75750858301515b600019600386901b1c1916600185901b178555611653565b600085815260208120601f198616915b828110156116ee578886015182559484019460019091019084016116cf565b508582101561170c5787850151600019600388901b60f8161c191681555b5050505050600190811b01905550565b81835281816020850137506000828201602090810191909152601f909101601f19169091010190565b60408152600061175960408301868861171c565b828103602084015261176c81858761171c565b979650505050505050565b634e487b7160e01b600052603160045260246000fd5b8381526040602082015260006117a760408301848661171c565b9594505050505056fea2646970667358221220154616a78fd431f83db22b5d19e0393aa56a186e92b9d703f0afff63a5de614c64736f6c63430008150033",
  "linkReferences": {},
  "deployedLinkReferences": {}
}